:0300000002000EED
:0C000E00787FE4F6D8FD758119020055DA
:1000E40008121824428118244281011000011100D1
:1000CF00438E805389F0758AA0758C15C28DD28CA2
:0500DF00D2A9D2AF22FE
:050003001200CF80FE99
:03000B0002009A56
:07009A00C0E0C0D075D008E2
:1000A1000510E51064647021F510F5A0F580F5A048
:1000B10075A08074122511F8E6F4F58075A000058D
:0900C10011E511B40803751100EA
:0500CA00D0D0D0E032AF
:10001A00020003E493A3F8E493A34003F68001F2F9
:10002A0008DFF48029E493A3F85407240CC8C333E7
:10003A00C4540F4420C8834004F456800146F6DFB6
:10004A00E4800B01020408102040809000E4E47E62
:10005A00019360BCA3FF543F30E509541FFEE493AB
:10006A00A360010ECF54C025E060A840B8E493A372
:10007A00FAE493A3F8E493A3C8C582C8CAC583CA9D
:10008A00F0A3C8C582C8CAC583CADFE9DEE780BE55
:0100F400000B
:00000001FF
