:030000000200BC3F
:0C00BC00787FE4F6D8FD75812002010376
:0C027B00C0F9A4B0999282F88090BFFFF7
:08029F00C10001100001110073
:0E024F0000007F167E037DE3DDFEDEFCDFFA9D
:01025D00227E
:10023C00438E805389F0758ACD758CD4C28DD28C47
:03024C00D2A92212
:10000E0075A0A0E4F580F5A075A0807580FFF5A021
:10001E0012023C7F0312026D75130B75140B7515CE
:10002E000B75160B75170BC2AF7F031201C98F121A
:10003E00D2AFE51275F06484F518E51275F00A84F6
:10004E0075F00A8485F019E51275F00A8485F01AA8
:10005E00E512C39464501475A0A0D286C284E4F550
:10006E00A075A0807580FFF5A08019E512C394C815
:10007E00501275A0A0C286C284E4F5A075A080754A
:10008E0080FEF5A0E512D394C8409C75A0A0C28650
:10009E00C284E4F5A075A0807580FDF5A012024F14
:0E00AE0075A0807580FFF5A012024F0200358C
:03000B00020148A7
:0B014800C0E0C083C082C0D075D008AA
:100153000510E51064017039F51075A0C0F580F540
:10016300A075A0C0AF1104A80F088002C333D8FC48
:10017300F58075A00075A0E074132511F8E69002D0
:100183007B93F58075A0000511E511B40803751183
:01019300006B
:09019400D0D0D082D083D0E0323B
:04028700D2A07F057D
:08028B0000AE071FEE70F9221E
:0F025E00D2A1120287C2A17F0512028BC2A02279
:0C029300C2A1120287D2A17F0502028BDB
:10022500C2A0A20192A17F0512028B120287C2A071
:07023500D2A17F0502028B3C
:0A020A00AB0712025E7F9012019D07
:10021400120287A2A19202C2A07F0512028BA2023F
:0102240022B7
:02019D00AD07AC
:10019F00E4FCC2A07F0512028BED30E704D2A180F0
:1001AF0002C2A17F0512028BD2A0ED25E0FD7F05D3
:0901BF0012028B0CBC08DBC2A08B
:0101C8002214
:1001ED00E4FC120287ED25E0FD30A103430501C2B9
:0C01FD00A07F0512028B0CBC08E8AF05C7
:0102090022D2
:0E026D0012020AAF0312019D12021402029344
:1001C90012020AAF0312019D12021412025E7F91FC
:1001D90012019D1202141201EDAD0712021412024E
:0301E90093AF05CC
:0101EC0022F0
:1000C80002000EE493A3F8E493A34003F68001F240
:1000D80008DFF48029E493A3F85407240CC8C33339
:1000E800C4540F4420C8834004F456800146F6DF08
:1000F800E4800B010204081020408090029FE47EF7
:10010800019360BCA3FF543F30E509541FFEE493FC
:10011800A360010ECF54C025E060A840B8E493A3C3
:10012800FAE493A3F8E493A3C8C582C8CAC583CAEE
:10013800F0A3C8C582C8CAC583CADFE9DEE780BEA6
:0102A7000056
:00000001FF
