:03000000020003F8
:0C000300787FE4F6D8FD75811002004AF9
:0A00C5000808182442811824428123
:0E00B60000007F167E037DE3DDFEDEFCDFFA38
:0100C4002219
:10008F00E4F510E4F5A0F580F5A075A080740825BF
:10009F0010F8E6F4F580E4F5A01200B60510E510AF
:0700AF00C3940940DE80D973
:10000F0002008FE493A3F8E493A34003F68001F278
:10001F0008DFF48029E493A3F85407240CC8C333F2
:10002F00C4540F4420C8834004F456800146F6DFC1
:10003F00E4800B01020408102040809000C5E47E8C
:10004F00019360BCA3FF543F30E509541FFEE493B6
:10005F00A360010ECF54C025E060A840B8E493A37D
:10006F00FAE493A3F8E493A3C8C582C8CAC583CAA8
:10007F00F0A3C8C582C8CAC583CADFE9DEE780BE60
:0100CF000030
:00000001FF
