:03000000020225D4
:0C022500787FE4F6D8FD75811602026CAB
:0C030600C0F9A4B0999282F88090BFFF6B
:0D02F80008090B0B0B0B0B0B0B0B01080087
:0A03120000007F027E0FDEFEDFFC1C
:01031C0022BE
:10000300E4F513C2B0C2B1C2B2C2B3D2B4D2B5D254
:10001300C2D2C420C40375157020C2037515B02065
:10002300B5037515D020B4037515E030C40C30C288
:100033000930B50630B4037515F0D2B0D2B1D2B2DF
:10004300D2B3C2B4C2B5C2C2C2C420B303751607C9
:1000530020B20375160B20B10375160D20B003757E
:10006300160E30B30C30B20930B10630B00375163A
:100073000FE5154516F513E50814601B147003020C
:10008300012E24026003020136E513F4700302011A
:1000930036750801020136E513B4FF03020133E5A7
:1000A300131202B100DB7700E07B00E57D00EA7EFE
:1000B30000EFB700F4BB00F9BD00FEBE0103D7019A
:1000C30008DB010DDD0112DE0117E7011CEB012145
:1000D300ED0126EE0000012975140480497514050D
:1000E3008044751406803F751407803A75140880A0
:1000F30035751409803075140A802B75140B80260E
:1001030075140C802175140D801C75140E801775E1
:10011300140F8012751410800D7514118008751456
:100123001280037514137508028008E513B4FF03E6
:05013300E4F508AF1423
:0101380022A4
:1002D700E4F5A0F580F5A075A0C004A80708800282
:1002E700C333D8FCF580E4F5A075A0E08D80F5A0B8
:0102F70022E4
:1001390075A0A0E4F580F5A075A0807580FFF5A0F5
:10014900E4F5121200038F11E51124FCB4100040EC
:100159000302020190016B75F003A4C58325F0C564
:10016900837302019B0201A00201A50201AA0201F7
:10017900AF0201B10201B30201BB0201C30201CB0B
:100189000201D30201DB0201E30201EB0201F302E6
:1001990001FB750F0B8036750F0B8039750F0B80BE
:1001A9003C750F0B803F8045804B750F01E4F510BE
:1001B9008046750F01751001803E750F017510029B
:1001C9008036750F01751003802E750F01751004A7
:1001D9008026750F01751005801E750F01751006B3
:1001E9008016750F01751007800E750F01751008BF
:1001F9008006750F01751009E4F512E512C394081C
:10020900400302014974092512F8E690030693FD9B
:0C021900AF121202D7120312051280DF90
:10023100020139E493A3F8E493A34003F68001F2A9
:1002410008DFF48029E493A3F85407240CC8C333CE
:10025100C4540F4420C8834004F456800146F6DF9D
:10026100E4800B01020408102040809002F8E47E33
:10027100019360BCA3FF543F30E509541FFEE49392
:10028100A360010ECF54C025E060A840B8E493A359
:10029100FAE493A3F8E493A3C8C582C8CAC583CA84
:1002A100F0A3C8C582C8CAC583CADFE9DEE780BE3C
:0103050000F7
:1002B100D083D082F8E4937012740193700DA3A3DC
:1002C10093F8740193F5828883E4737402936860F0
:0602D100EFA3A3A380DFF0
:00000001FF
