:030000000201E119
:0C01E100787FE4F6D8FD7581200202282A
:0C049900C0F9A4B0999282F88090BFFFD7
:06000300011000011100D4
:10046100438E805389F0758ACD758CD4C28DD28C20
:05047100D2AFD2A92268
:10033A00E512C39414500D75130A75150A75140144
:10034A00E4FF801CE512C39417500A75130B751548
:10035A000B75140B2275130A75150A7514027FFFA3
:04036A001203FC225C
:1002C20075A0A0E4F580F5A075A0807580FFF5A06B
:1002D20012046175130B75140B75150B75160B75DE
:1002E200170B75180B1203051201528F12E51275C6
:1002F200F00A84F519E51275F00A8485F01A1203E2
:030302003A80E25C
:03000B0002026D81
:0B026D00C0E0C083C082C0D075D00884
:100278000510E51064017039F51075A0C0F580F51A
:10028800A075A0C0AF1104A80F088002C333D8FC22
:10029800F58075A00075A0E074132511F8E69004A8
:1002A8009993F58075A0000511E511B4080375113F
:0102B8000045
:0902B900D0D0D082D083D0E03215
:0404A500D2A07F055D
:0804A90000AE071FEE70F922FE
:0F048A00D2A11204A5C2A17F051204A9C2A0220B
:0C04B100C2A11204A5D2A17F050204A97B
:10044A00C2A0A20092A17F051204A91204A5C2A00B
:07045A00D2A17F050204A9F5
:0304760012036E00
:100479001204A5A2A19201C2A07F051204A9A2019A
:010489002250
:02036E00AD07D9
:10037000E4FCC2A07F051204A9ED30E704D2A180FD
:1003800002C2A17F051204A9D2A0ED25E0FD7F05E0
:090390001204A90CBC08DBC2A098
:010399002241
:1003DF00E4FC1204A5ED25E0FD30A103430501C2A5
:0C03EF00A07F051204A90CBC08E8AF05B3
:0103FB0022DF
:1003FC00AB0712048A7F901204767F40120476AF0A
:0A040C000312036E1204790204B11A
:040416007F057E00E0
:10041A00EF1FAA0670011E4A600BE4FDEDC3940C9F
:05042A0050EE0D80F70B
:01042F0022AA
:0203C100A9078A
:1003C300E4FBC294E9139294120416D294E9C31382
:0C03D300F90BBB08ED7F057E0002041A48
:10043000E4FBC294ECC313FCD294309403430480D5
:090440001204160BBB08EBAF041B
:010449002290
:10039A00C201D2947F0C7E0012041AC2947F507E4E
:1003AA000012041AD2947F0A7E0012041AA29492AE
:0603BA0001120416A2016D
:0103C000221A
:1003050012039A7FCC1203C17F441203C112039AD0
:100315007FCC1203C17FBE1203C1120430A907129C
:100325000430EFAD01FCE4120119E4FBFA798078A1
:040335003D12000E67
:0103390022A1
:10000E00EC4D6011E8497017ED33EC3304600DE4EC
:10001E00FCFFFEFD22E933E8330470F80201BE1244
:10002E00018958046009E4CC248150062850090245
:10003E0001C82840030201C5C0E0EB4A7044B980F4
:10004E0006D0E0FB0201B4EF4E701CBD8008EBFF42
:10005E00EAFEE9FD80EBE98DF0A4FEE5F00200F783
:10006E00E9CDF9EAFEEBFFEF89F0A4FCE5F0CE89CD
:10007E00F0A42EFFE435F0CD89F0A42DFEE435F08A
:10008E008067EF4E7005BD80D780C3EF8BF0A4ACB8
:10009E00F0EE8BF0A42CFCE435F0F8EF8AF0A42CF3
:1000AE00E5F038FCE433CB8DF0A42CFCE5F03BF806
:1000BE00EE8AF0A42CFCE5F038F8E433CF89F0A4F6
:1000CE002CFCE5F038CF3400CE89F0A42FFFE5F0FC
:1000DE003EFEE433C98DF0A42EFEE5F039CD8AF054
:1000EE00A42FFFE5F03EFEE43DFD33D0E0FB5007CC
:1000FE000BBB000F0201C8EC2CFCEF33FFEE33FEFE
:06010E00ED33FD0201A02B
:1001140075F020800E75F010800575F0087D007E66
:10012400007F003392D530D5031201D3EC33401055
:10013400EF33FFEE33FEED33FDEC33FCD5F0ED226F
:0E014400E5F0247EA2D513CC92E7CDCEFF22AB
:10015200EDD2E7CD33EC3392D524814006E4FFFEA5
:10016200FDFC22FCE4CFCECDCC24E0501174FF8004
:10017200EDC3CC13CCCD13CDCE13CECF13CF0470A1
:07018200F030D5DE0201D3CD
:10018900E9D2E7C933E833F892D5EDD2E7CD33ECBC
:0701990033FC5002B2D52235
:1001A000EC30E7100FBF000C0EBE00080DBD0004C0
:1001B0000BEB6014A2D5EB13FCED92E7FD2274FF6C
:1001C000FCFDFEFF22E480F8A2D574FF13FC7D80C5
:0301D000E480EFD9
:1001ED000202C2E493A3F8E493A34003F68001F264
:1001FD0008DFF48029E493A3F85407240CC8C33313
:10020D00C4540F4420C8834004F456800146F6DFE1
:10021D00E4800B0102040810204080900003E47E6E
:10022D00019360BCA3FF543F30E509541FFEE493D6
:10023D00A360010ECF54C025E060A840B8E493A39D
:10024D00FAE493A3F8E493A3C8C582C8CAC583CAC8
:10025D00F0A3C8C582C8CAC583CADFE9DEE780BE80
:0100090000F6
:0E01D300C3E49FFFE49EFEE49DFDE49CFC223D
:00000001FF
